{
  "contractName": "DuberolaApp",
  "abi": [
    {
      "inputs": [],
      "stateMutability": "nonpayable",
      "type": "constructor"
    },
    {
      "anonymous": false,
      "inputs": [
        {
          "indexed": false,
          "internalType": "string",
          "name": "userName",
          "type": "string"
        }
      ],
      "name": "ConsumerCreated",
      "type": "event"
    },
    {
      "anonymous": false,
      "inputs": [
        {
          "indexed": false,
          "internalType": "string",
          "name": "userName",
          "type": "string"
        }
      ],
      "name": "ProviderCreated",
      "type": "event"
    },
    {
      "inputs": [
        {
          "internalType": "string",
          "name": "providerName",
          "type": "string"
        }
      ],
      "name": "registerProvider",
      "outputs": [
        {
          "internalType": "bool",
          "name": "",
          "type": "bool"
        }
      ],
      "stateMutability": "nonpayable",
      "type": "function"
    },
    {
      "inputs": [
        {
          "internalType": "string",
          "name": "consumerName",
          "type": "string"
        }
      ],
      "name": "registerConsumer",
      "outputs": [
        {
          "internalType": "bool",
          "name": "",
          "type": "bool"
        }
      ],
      "stateMutability": "nonpayable",
      "type": "function"
    },
    {
      "inputs": [
        {
          "internalType": "address",
          "name": "user",
          "type": "address"
        },
        {
          "internalType": "string",
          "name": "coords",
          "type": "string"
        },
        {
          "internalType": "string",
          "name": "destination",
          "type": "string"
        }
      ],
      "name": "requestRide",
      "outputs": [
        {
          "internalType": "bool",
          "name": "",
          "type": "bool"
        }
      ],
      "stateMutability": "pure",
      "type": "function",
      "constant": true
    }
  ],
  "bytecode": "0x608060405234801561001057600080fd5b50610c31806100206000396000f3fe608060405234801561001057600080fd5b50600436106100415760003560e01c806355bd361014610046578063cae95d461461006d578063d9ac402214610084575b600080fd5b6100596100543660046102cb565b610097565b604051901515815260200160405180910390f35b61005961007b366004610308565b60019392505050565b6100596100923660046102cb565b61015c565b600080826040516100a79061020e565b6100b1919061038a565b604051809103906000f0801580156100cd573d6000803e3d6000fd5b506001805480820182556000919091527fb10e2d527612073b26eecdfd717e6a320cf44b4afac2b0732d9fcbe2b7fa0cf60180546001600160a01b0319166001600160a01b0383161790556040519091507f294af9a68ce1616d37138929d161a707ea8368efc6a3e5992789002c271c8ad99061014b90859061038a565b60405180910390a150600192915050565b6000808260405161016c9061021b565b610176919061038a565b604051809103906000f080158015610192573d6000803e3d6000fd5b50600080546001810182559080527f290decd9548b62a8d60345a988386fc84ba6bc95484008f6362f93160ef3e5630180546001600160a01b0319166001600160a01b0383161790556040519091507f1b111274444e68e0bd34d726b5aeec135a4d9bdcfb7bd7c4807d80df7f2927399061014b90859061038a565b610412806103d983390190565b610411806107eb83390190565b634e487b7160e01b600052604160045260246000fd5b600082601f83011261024f57600080fd5b813567ffffffffffffffff8082111561026a5761026a610228565b604051601f8301601f19908116603f0116810190828211818310171561029257610292610228565b816040528381528660208588010111156102ab57600080fd5b836020870160208301376000602085830101528094505050505092915050565b6000602082840312156102dd57600080fd5b813567ffffffffffffffff8111156102f457600080fd5b6103008482850161023e565b949350505050565b60008060006060848603121561031d57600080fd5b83356001600160a01b038116811461033457600080fd5b9250602084013567ffffffffffffffff8082111561035157600080fd5b61035d8783880161023e565b9350604086013591508082111561037357600080fd5b506103808682870161023e565b9150509250925092565b600060208083528351808285015260005b818110156103b75785810183015185820160400152820161039b565b506000604082860101526040601f19601f830116850101925050509291505056fe608060405234801561001057600080fd5b5060405161041238038061041283398101604081905261002f91610058565b600061003b82826101aa565b5050610269565b634e487b7160e01b600052604160045260246000fd5b6000602080838503121561006b57600080fd5b82516001600160401b038082111561008257600080fd5b818501915085601f83011261009657600080fd5b8151818111156100a8576100a8610042565b604051601f8201601f19908116603f011681019083821181831017156100d0576100d0610042565b8160405282815288868487010111156100e857600080fd5b600093505b8284101561010a57848401860151818501870152928501926100ed565b600086848301015280965050505050505092915050565b600181811c9082168061013557607f821691505b60208210810361015557634e487b7160e01b600052602260045260246000fd5b50919050565b601f8211156101a557600081815260208120601f850160051c810160208610156101825750805b601f850160051c820191505b818110156101a15782815560010161018e565b5050505b505050565b81516001600160401b038111156101c3576101c3610042565b6101d7816101d18454610121565b8461015b565b602080601f83116001811461020c57600084156101f45750858301515b600019600386901b1c1916600185901b1785556101a1565b600085815260208120601f198616915b8281101561023b5788860151825594840194600190910190840161021c565b50858210156102595787850151600019600388901b60f8161c191681555b5050505050600190811b01905550565b61019a806102786000396000f3fe608060405234801561001057600080fd5b506004361061002b5760003560e01c8063910217bc14610030575b600080fd5b61003861004e565b60405161004591906100dc565b60405180910390f35b6000805461005b9061012a565b80601f01602080910402602001604051908101604052809291908181526020018280546100879061012a565b80156100d45780601f106100a9576101008083540402835291602001916100d4565b820191906000526020600020905b8154815290600101906020018083116100b757829003601f168201915b505050505081565b600060208083528351808285015260005b81811015610109578581018301518582016040015282016100ed565b506000604082860101526040601f19601f8301168501019250505092915050565b600181811c9082168061013e57607f821691505b60208210810361015e57634e487b7160e01b600052602260045260246000fd5b5091905056fea26469706673582212209c542f605f41f9aceadc18045e1a9489330f284e382f79362547d187ed30733164736f6c63430008110033608060405234801561001057600080fd5b5060405161041138038061041183398101604081905261002f91610058565b600061003b82826101aa565b5050610269565b634e487b7160e01b600052604160045260246000fd5b6000602080838503121561006b57600080fd5b82516001600160401b038082111561008257600080fd5b818501915085601f83011261009657600080fd5b8151818111156100a8576100a8610042565b604051601f8201601f19908116603f011681019083821181831017156100d0576100d0610042565b8160405282815288868487010111156100e857600080fd5b600093505b8284101561010a57848401860151818501870152928501926100ed565b600086848301015280965050505050505092915050565b600181811c9082168061013557607f821691505b60208210810361015557634e487b7160e01b600052602260045260246000fd5b50919050565b601f8211156101a557600081815260208120601f850160051c810160208610156101825750805b601f850160051c820191505b818110156101a15782815560010161018e565b5050505b505050565b81516001600160401b038111156101c3576101c3610042565b6101d7816101d18454610121565b8461015b565b602080601f83116001811461020c57600084156101f45750858301515b600019600386901b1c1916600185901b1785556101a1565b600085815260208120601f198616915b8281101561023b5788860151825594840194600190910190840161021c565b50858210156102595787850151600019600388901b60f8161c191681555b5050505050600190811b01905550565b610199806102786000396000f3fe608060405234801561001057600080fd5b506004361061002a5760003560e01c8062dad7d41461002f575b600080fd5b61003761004d565b60405161004491906100db565b60405180910390f35b6000805461005a90610129565b80601f016020809104026020016040519081016040528092919081815260200182805461008690610129565b80156100d35780601f106100a8576101008083540402835291602001916100d3565b820191906000526020600020905b8154815290600101906020018083116100b657829003601f168201915b505050505081565b600060208083528351808285015260005b81811015610108578581018301518582016040015282016100ec565b506000604082860101526040601f19601f8301168501019250505092915050565b600181811c9082168061013d57607f821691505b60208210810361015d57634e487b7160e01b600052602260045260246000fd5b5091905056fea26469706673582212204fe031f3574a310a8a084739e5e30e05389d5f4c87eecfc302dd38805a2198bf64736f6c63430008110033a264697066735822122068a3a23f673b945e51820eecc1e94c9eff30da523951b6fdebba4caf4bbcc36f64736f6c63430008110033",
  "immutableReferences": {},
  "source": "// SPDX-License-Identifier: MIT\r\npragma solidity ^0.8.17;\r\n\r\nimport \"@openzeppelin/contracts/utils/math/SafeMath.sol\";\r\nimport {DuberolaProvider as Provider} from \"./DuberolaProvider.sol\";\r\nimport {DuberolaConsumer as Consumer} from \"./DuberolaConsumer.sol\";\r\n\r\n\r\n/** @title DuberolaApp */\r\ncontract DuberolaApp {\r\n    Provider[] private providers;\r\n\tConsumer[] private consumers;\r\n\r\n    event ProviderCreated(\r\n        string userName\r\n    );\r\n\t\r\n\tevent ConsumerCreated(\r\n\t    string userName\r\n\t);\r\n\r\n\tconstructor() {\r\n    } \r\n\r\n    /**\r\n\t */\r\n    function registerProvider(\r\n        string memory providerName\r\n    )\r\n        public\r\n        returns (bool)\r\n    {\r\n        Provider newProvider = new Provider(providerName);\r\n        providers.push(newProvider);\r\n\r\n        emit ProviderCreated(\r\n            providerName\r\n        );\r\n        return true;\r\n    }\r\n\t\r\n\t/**\r\n\t */\r\n\tfunction registerConsumer(\r\n\t    string memory consumerName\r\n    )\r\n\t    public\r\n\t\treturns (bool)\r\n\t{\r\n\t    Consumer newConsumer = new Consumer(consumerName);\r\n\t\tconsumers.push(newConsumer);\r\n\t\t\r\n\t\temit ConsumerCreated(\r\n\t\t    consumerName\r\n\t\t);\r\n\t\treturn true;\r\n\t}\r\n\t\r\n\t/**\r\n\t */\r\n\tfunction requestRide(\r\n\t    address user,\r\n\t\tstring memory coords,\r\n\t\tstring memory destination\r\n\t)\r\n\t    public\r\n\t\tpure\r\n\t\treturns (bool)\r\n    {\r\n\t\tuser;\r\n\t\tcoords;\r\n\t\tdestination;\r\n\t    return true;\r\n\t}\r\n}",
  "sourcePath": "D:\\github_wa\\Duberola\\contracts\\DuberolaApp.sol",
  "compiler": {
    "name": "solc",
    "version": "0.8.17+commit.8df45f5f.Emscripten.clang"
  },
  "schemaVersion": "3.4.10",
  "updatedAt": "2022-11-11T03:29:06.256Z",
  "networkType": "ethereum",
  "devdoc": {
    "kind": "dev",
    "methods": {},
    "title": "DuberolaApp ",
    "version": 1
  },
  "userdoc": {
    "kind": "user",
    "methods": {},
    "version": 1
  }
}