{
  "contractName": "DuberolaApp",
  "abi": [
    {
      "inputs": [],
      "stateMutability": "nonpayable",
      "type": "constructor"
    },
    {
      "anonymous": false,
      "inputs": [
        {
          "indexed": false,
          "internalType": "string",
          "name": "userName",
          "type": "string"
        }
      ],
      "name": "ConsumerCreated",
      "type": "event"
    },
    {
      "anonymous": false,
      "inputs": [
        {
          "indexed": false,
          "internalType": "string",
          "name": "userName",
          "type": "string"
        }
      ],
      "name": "ProviderCreated",
      "type": "event"
    },
    {
      "inputs": [
        {
          "internalType": "string",
          "name": "providerName",
          "type": "string"
        }
      ],
      "name": "registerProvider",
      "outputs": [
        {
          "internalType": "bool",
          "name": "",
          "type": "bool"
        }
      ],
      "stateMutability": "nonpayable",
      "type": "function"
    },
    {
      "inputs": [
        {
          "internalType": "string",
          "name": "consumerName",
          "type": "string"
        }
      ],
      "name": "registerConsumer",
      "outputs": [
        {
          "internalType": "bool",
          "name": "",
          "type": "bool"
        }
      ],
      "stateMutability": "nonpayable",
      "type": "function"
    },
    {
      "inputs": [
        {
          "internalType": "address",
          "name": "user",
          "type": "address"
        },
        {
          "internalType": "string",
          "name": "coords",
          "type": "string"
        },
        {
          "internalType": "string",
          "name": "destination",
          "type": "string"
        }
      ],
      "name": "requestRide",
      "outputs": [
        {
          "internalType": "bool",
          "name": "",
          "type": "bool"
        }
      ],
      "stateMutability": "pure",
      "type": "function"
    }
  ],
  "bytecode": "0x608060405234801561001057600080fd5b50611518806100206000396000f3fe60806040523480156200001157600080fd5b5060043610620000465760003560e01c806355bd3610146200004b578063cae95d461462000081578063d9ac402214620000b7575b600080fd5b62000069600480360381019062000063919062000454565b620000ed565b604051620000789190620004c2565b60405180910390f35b6200009f600480360381019062000099919062000544565b620001d1565b604051620000ae9190620004c2565b60405180910390f35b620000d56004803603810190620000cf919062000454565b620001de565b604051620000e49190620004c2565b60405180910390f35b60008082604051620000ff90620002c2565b6200010b919062000667565b604051809103906000f08015801562000128573d6000803e3d6000fd5b5090506001819080600181540180825580915050600190039060005260206000200160009091909190916101000a81548173ffffffffffffffffffffffffffffffffffffffff021916908373ffffffffffffffffffffffffffffffffffffffff1602179055507f294af9a68ce1616d37138929d161a707ea8368efc6a3e5992789002c271c8ad983604051620001bf919062000667565b60405180910390a16001915050919050565b6000600190509392505050565b60008082604051620001f090620002d0565b620001fc919062000667565b604051809103906000f08015801562000219573d6000803e3d6000fd5b5090506000819080600181540180825580915050600190039060005260206000200160009091909190916101000a81548173ffffffffffffffffffffffffffffffffffffffff021916908373ffffffffffffffffffffffffffffffffffffffff1602179055507f1b111274444e68e0bd34d726b5aeec135a4d9bdcfb7bd7c4807d80df7f29273983604051620002b0919062000667565b60405180910390a16001915050919050565b61072c806200068c83390190565b61072b8062000db883390190565b6000604051905090565b600080fd5b600080fd5b600080fd5b600080fd5b6000601f19601f8301169050919050565b7f4e487b7100000000000000000000000000000000000000000000000000000000600052604160045260246000fd5b6200034782620002fc565b810181811067ffffffffffffffff821117156200036957620003686200030d565b5b80604052505050565b60006200037e620002de565b90506200038c82826200033c565b919050565b600067ffffffffffffffff821115620003af57620003ae6200030d565b5b620003ba82620002fc565b9050602081019050919050565b82818337600083830152505050565b6000620003ed620003e78462000391565b62000372565b9050828152602081018484840111156200040c576200040b620002f7565b5b62000419848285620003c7565b509392505050565b600082601f830112620004395762000438620002f2565b5b81356200044b848260208601620003d6565b91505092915050565b6000602082840312156200046d576200046c620002e8565b5b600082013567ffffffffffffffff8111156200048e576200048d620002ed565b5b6200049c8482850162000421565b91505092915050565b60008115159050919050565b620004bc81620004a5565b82525050565b6000602082019050620004d96000830184620004b1565b92915050565b600073ffffffffffffffffffffffffffffffffffffffff82169050919050565b60006200050c82620004df565b9050919050565b6200051e81620004ff565b81146200052a57600080fd5b50565b6000813590506200053e8162000513565b92915050565b60008060006060848603121562000560576200055f620002e8565b5b600062000570868287016200052d565b935050602084013567ffffffffffffffff811115620005945762000593620002ed565b5b620005a28682870162000421565b925050604084013567ffffffffffffffff811115620005c657620005c5620002ed565b5b620005d48682870162000421565b9150509250925092565b600081519050919050565b600082825260208201905092915050565b60005b838110156200061a578082015181840152602081019050620005fd565b60008484015250505050565b60006200063382620005de565b6200063f8185620005e9565b935062000651818560208601620005fa565b6200065c81620002fc565b840191505092915050565b6000602082019050818103600083015262000683818462000626565b90509291505056fe608060405234801561001057600080fd5b5060405161072c38038061072c833981810160405281019061003291906101bd565b80600090816100419190610427565b50506104f9565b6000604051905090565b600080fd5b600080fd5b600080fd5b600080fd5b6000601f19601f8301169050919050565b7f4e487b7100000000000000000000000000000000000000000000000000000000600052604160045260246000fd5b6100af82610066565b810181811067ffffffffffffffff821117156100ce576100cd610077565b5b80604052505050565b60006100e1610048565b90506100ed82826100a6565b919050565b600067ffffffffffffffff82111561010d5761010c610077565b5b61011682610066565b9050602081019050919050565b60005b83811015610141578082015181840152602081019050610126565b60008484015250505050565b600061016061015b846100f2565b6100d7565b90508281526020810184848401111561017c5761017b610061565b5b610187848285610123565b509392505050565b600082601f8301126101a4576101a361005c565b5b81516101b484826020860161014d565b91505092915050565b6000602082840312156101d3576101d2610052565b5b600082015167ffffffffffffffff8111156101f1576101f0610057565b5b6101fd8482850161018f565b91505092915050565b600081519050919050565b7f4e487b7100000000000000000000000000000000000000000000000000000000600052602260045260246000fd5b6000600282049050600182168061025857607f821691505b60208210810361026b5761026a610211565b5b50919050565b60008190508160005260206000209050919050565b60006020601f8301049050919050565b600082821b905092915050565b6000600883026102d37fffffffffffffffffffffffffffffffffffffffffffffffffffffffffffffffff82610296565b6102dd8683610296565b95508019841693508086168417925050509392505050565b6000819050919050565b6000819050919050565b600061032461031f61031a846102f5565b6102ff565b6102f5565b9050919050565b6000819050919050565b61033e83610309565b61035261034a8261032b565b8484546102a3565b825550505050565b600090565b61036761035a565b610372818484610335565b505050565b5b818110156103965761038b60008261035f565b600181019050610378565b5050565b601f8211156103db576103ac81610271565b6103b584610286565b810160208510156103c4578190505b6103d86103d085610286565b830182610377565b50505b505050565b600082821c905092915050565b60006103fe600019846008026103e0565b1980831691505092915050565b600061041783836103ed565b9150826002028217905092915050565b61043082610206565b67ffffffffffffffff81111561044957610448610077565b5b6104538254610240565b61045e82828561039a565b600060209050601f831160018114610491576000841561047f578287015190505b610489858261040b565b8655506104f1565b601f19841661049f86610271565b60005b828110156104c7578489015182556001820191506020850194506020810190506104a2565b868310156104e457848901516104e0601f8916826103ed565b8355505b6001600288020188555050505b505050505050565b610224806105086000396000f3fe608060405234801561001057600080fd5b506004361061002b5760003560e01c8063910217bc14610030575b600080fd5b61003861004e565b604051610045919061016c565b60405180910390f35b6000805461005b906101bd565b80601f0160208091040260200160405190810160405280929190818152602001828054610087906101bd565b80156100d45780601f106100a9576101008083540402835291602001916100d4565b820191906000526020600020905b8154815290600101906020018083116100b757829003601f168201915b505050505081565b600081519050919050565b600082825260208201905092915050565b60005b838110156101165780820151818401526020810190506100fb565b60008484015250505050565b6000601f19601f8301169050919050565b600061013e826100dc565b61014881856100e7565b93506101588185602086016100f8565b61016181610122565b840191505092915050565b600060208201905081810360008301526101868184610133565b905092915050565b7f4e487b7100000000000000000000000000000000000000000000000000000000600052602260045260246000fd5b600060028204905060018216806101d557607f821691505b6020821081036101e8576101e761018e565b5b5091905056fea26469706673582212202479a5ad0e70fa8f60385cc19696b9b2d30bd3f495359bdbff7eab0d908239f864736f6c63430008110033608060405234801561001057600080fd5b5060405161072b38038061072b833981810160405281019061003291906101bd565b80600090816100419190610427565b50506104f9565b6000604051905090565b600080fd5b600080fd5b600080fd5b600080fd5b6000601f19601f8301169050919050565b7f4e487b7100000000000000000000000000000000000000000000000000000000600052604160045260246000fd5b6100af82610066565b810181811067ffffffffffffffff821117156100ce576100cd610077565b5b80604052505050565b60006100e1610048565b90506100ed82826100a6565b919050565b600067ffffffffffffffff82111561010d5761010c610077565b5b61011682610066565b9050602081019050919050565b60005b83811015610141578082015181840152602081019050610126565b60008484015250505050565b600061016061015b846100f2565b6100d7565b90508281526020810184848401111561017c5761017b610061565b5b610187848285610123565b509392505050565b600082601f8301126101a4576101a361005c565b5b81516101b484826020860161014d565b91505092915050565b6000602082840312156101d3576101d2610052565b5b600082015167ffffffffffffffff8111156101f1576101f0610057565b5b6101fd8482850161018f565b91505092915050565b600081519050919050565b7f4e487b7100000000000000000000000000000000000000000000000000000000600052602260045260246000fd5b6000600282049050600182168061025857607f821691505b60208210810361026b5761026a610211565b5b50919050565b60008190508160005260206000209050919050565b60006020601f8301049050919050565b600082821b905092915050565b6000600883026102d37fffffffffffffffffffffffffffffffffffffffffffffffffffffffffffffffff82610296565b6102dd8683610296565b95508019841693508086168417925050509392505050565b6000819050919050565b6000819050919050565b600061032461031f61031a846102f5565b6102ff565b6102f5565b9050919050565b6000819050919050565b61033e83610309565b61035261034a8261032b565b8484546102a3565b825550505050565b600090565b61036761035a565b610372818484610335565b505050565b5b818110156103965761038b60008261035f565b600181019050610378565b5050565b601f8211156103db576103ac81610271565b6103b584610286565b810160208510156103c4578190505b6103d86103d085610286565b830182610377565b50505b505050565b600082821c905092915050565b60006103fe600019846008026103e0565b1980831691505092915050565b600061041783836103ed565b9150826002028217905092915050565b61043082610206565b67ffffffffffffffff81111561044957610448610077565b5b6104538254610240565b61045e82828561039a565b600060209050601f831160018114610491576000841561047f578287015190505b610489858261040b565b8655506104f1565b601f19841661049f86610271565b60005b828110156104c7578489015182556001820191506020850194506020810190506104a2565b868310156104e457848901516104e0601f8916826103ed565b8355505b6001600288020188555050505b505050505050565b610223806105086000396000f3fe608060405234801561001057600080fd5b506004361061002a5760003560e01c8062dad7d41461002f575b600080fd5b61003761004d565b604051610044919061016b565b60405180910390f35b6000805461005a906101bc565b80601f0160208091040260200160405190810160405280929190818152602001828054610086906101bc565b80156100d35780601f106100a8576101008083540402835291602001916100d3565b820191906000526020600020905b8154815290600101906020018083116100b657829003601f168201915b505050505081565b600081519050919050565b600082825260208201905092915050565b60005b838110156101155780820151818401526020810190506100fa565b60008484015250505050565b6000601f19601f8301169050919050565b600061013d826100db565b61014781856100e6565b93506101578185602086016100f7565b61016081610121565b840191505092915050565b600060208201905081810360008301526101858184610132565b905092915050565b7f4e487b7100000000000000000000000000000000000000000000000000000000600052602260045260246000fd5b600060028204905060018216806101d457607f821691505b6020821081036101e7576101e661018d565b5b5091905056fea26469706673582212203bca4a80d1abe4ec68f31a6301520ac006e0a414812ccd6cb6b6aed743c3646a64736f6c63430008110033a26469706673582212208be11c384a86bac3c01c0308590a3a50c5df3bb26b8cd9bfb851c29892004e5464736f6c63430008110033",
  "immutableReferences": {},
  "source": "// SPDX-License-Identifier: MIT\r\npragma solidity ^0.8.17;\r\n\r\nimport \"@openzeppelin/contracts/utils/math/SafeMath.sol\";\r\nimport {DuberolaProvider as Provider} from \"./DuberolaProvider.sol\";\r\nimport {DuberolaConsumer as Consumer} from \"./DuberolaConsumer.sol\";\r\n\r\n\r\n/** @title DuberolaApp */\r\ncontract DuberolaApp {\r\n    Provider[] private providers;\r\n\tConsumer[] private consumers;\r\n\r\n    event ProviderCreated(\r\n        string userName\r\n    );\r\n\t\r\n\tevent ConsumerCreated(\r\n\t    string userName\r\n\t);\r\n\r\n\tconstructor() {\r\n    } \r\n\r\n    /**\r\n\t */\r\n    function registerProvider(\r\n        string memory providerName\r\n    )\r\n        public\r\n        returns (bool)\r\n    {\r\n        Provider newProvider = new Provider(providerName);\r\n        providers.push(newProvider);\r\n\r\n        emit ProviderCreated(\r\n            providerName\r\n        );\r\n        return true;\r\n    }\r\n\t\r\n\t/**\r\n\t */\r\n\tfunction registerConsumer(\r\n\t    string memory consumerName\r\n    )\r\n\t    public\r\n\t\treturns (bool)\r\n\t{\r\n\t    Consumer newConsumer = new Consumer(consumerName);\r\n\t\tconsumers.push(newConsumer);\r\n\t\t\r\n\t\temit ConsumerCreated(\r\n\t\t    consumerName\r\n\t\t);\r\n\t\treturn true;\r\n\t}\r\n\t\r\n\t/**\r\n\t */\r\n\tfunction requestRide(\r\n\t    address user,\r\n\t\tstring memory coords,\r\n\t\tstring memory destination\r\n\t)\r\n\t    public\r\n\t\tpure\r\n\t\treturns (bool)\r\n    {\r\n\t\tuser;\r\n\t\tcoords;\r\n\t\tdestination;\r\n\t    return true;\r\n\t}\r\n}",
  "sourcePath": "D:\\github_wa\\Duberola\\contracts\\DuberolaApp.sol",
  "compiler": {
    "name": "solc",
    "version": "0.8.17+commit.8df45f5f.Emscripten.clang"
  },
  "schemaVersion": "3.4.10",
  "updatedAt": "2022-11-10T02:19:06.492Z",
  "devdoc": {
    "kind": "dev",
    "methods": {},
    "title": "DuberolaApp ",
    "version": 1
  },
  "userdoc": {
    "kind": "user",
    "methods": {},
    "version": 1
  }
}